:1000000017C1000087C700005AC700002DC70000B5
:1000100000C70000D3C60000A6C6000079C60000D5
:100020004CC6000036C1000034C1000032C10000DF
:1000300030C100002EC100002CC100002AC1000008
:1000400028C1000026C1000024C1000022C1000018
:1000500020C100001EC100001CC10000E4C500005A
:1000600018C10000F6C40000CBC4000012C100009B
:1000700010C100000EC100000CC100000AC1000048
:1000800008C1000006C1000004C1000002C1000058
:100090008EC4000063C40000FCC00000FAC0000071
:1000A000F8C00000F6C00000F4C00000F2C000007C
:1000B000F0C00000EEC00000ECC00000EAC000008C
:1000C000E8C00000E6C00000E4C000001EC400005C
:1000D000F3C30000DEC00000C6C300009BC30000E5
:1000E000D8C0000048034D03520357035C0361036B
:1000F00066036B0381058405730577057B05BB05E6
:1001000088058C05920596059A05A005A405A80505
:10011000BB05AE05B205B605990AA10A790A810A9E
:10012000890A910AA90AB10A00000A0B02090C0DFA
:100130000E0807030401000000000000000000009A
:1001400000000000000000000000000000000000AF
:10015000000000001211100000000000000000006C
:10016000000000000000000000000000000000008F
:100170002200250028002B002E003100340002014F
:100180000000050108010B010000210024002700E8
:100190002A002D0030003300010100000401070196
:1001A0000A010505050507050808080802020202FC
:1001B0000A0A080804040404010101010101010103
:1001C0000303030303030303040707070C0C0C0CCE
:1001D0000C0C0C0C020202020606060606060606B7
:1001E0000B0B0B0B0B0B0B0B010210202008081044
:1001F0002040102040800201020108040201010297
:10020000040810204080804020100804020180046F
:1002100002018040201008040201080402010102CA
:100220000408102040800102040810204080F212CF
:1002300011241FBECFEFD1E2DEBFCDBF00E00CBF67
:1002400029E0ACEDB4E001C01D92AB36B207E1F796
:1002500014E0A0E0B2E0E8E6F1E300E00BBF02C08A
:1002600007900D92AC3DB107D9F711E0C8E1D1E09C
:1002700000E006C021970109802FFE010E9471163F
:10028000C731D10780E00807A9F70E94F10D0C944F
:10029000B218B6CECF92DF92EF92FF920F931F93D8
:1002A000CF93DF936C017A018B01C0E0D0E0CE15D3
:1002B000DF0589F0D8016D918D01D601ED91FC919A
:1002C0000190F081E02DC6011995892B11F47E0172
:1002D00002C02196ECCFC701DF91CF911F910F9102
:1002E000FF90EF90DF90CF900895FC01A089B18935
:1002F0008C91A689B78982FD0FC09C91818D8F5FFB
:100300008F73228D821749F0218DDF01A20FB11D5D
:100310005D969C93818F08958C910895089580E057
:1003200090E00895FC01538D448D252F30E0842FFB
:1003300090E0821B930B541710F0CF96089501970D
:100340000895FC01918D828D981761F0828DDF01F7
:10035000A80FB11D5D968C91928D9F5F9F73928FB8
:1003600090E008958FEF9FEF0895FC01918D828DAD
:10037000981731F0828DE80FF11D858D90E008957A
:100380008FEF9FEF0895FC01918D228D892F90E0D2
:10039000805C9F4F821B91098F739927089589E094
:1003A00098E0F1DF21E0892B09F420E0822F089505
:1003B00086EA98E0E8DF21E0892B09F420E0822F2B
:1003C000089586E595E0DFDF21E0892B09F420E040
:1003D000822F089583EF95E0D6DF21E0892B09F481
:1003E00020E0822F0895FC01848DDF01A80FB11D4C
:1003F000A35ABF4F2C91848D90E001968F7399275B
:10040000848FA689B7892C93A089B1898C91806447
:100410008C93938D848D981306C00288F389E02D08
:1004200080818F7D80830895EF92FF920F931F93B9
:10043000CF93DF93EC0181E0888F9B8D8C8D981397
:1004400005C0E889F989808185FD23C0F62E0B8DD2
:1004500010E00F5F1F4F0F731127E02E8C8DE812F5
:100460000BC00FB607FCFACFE889F989808185FFB8
:10047000F5CFCE01B8DFF2CF8B8DFE01E80FF11D75
:10048000E35AFF4FF0820B8FEA89FB8980818062FB
:1004900007C0EE89FF896083E889F98980818064DB
:1004A000808381E090E0DF91CF911F910F91FF90C9
:1004B000EF900895CF93DF93EC01888D8823C1F0EE
:1004C000EA89FB89808185FD05C0A889B9898C915D
:1004D00086FD0EC00FB607FCF5CF808185FFF2CFF9
:1004E000A889B9898C9185FFEDCFCE017CDFE8CF5B
:1004F000DF91CF91089580E090E0892B19F06ADFB9
:10050000811116C080E090E0892B19F05ADF81112B
:1005100012C080E090E0892B19F04ADF81110EC0F3
:1005200080E090E0892B79F03ADF81110AC00895CC
:100530000E940000E7CF0E940000EBCF0E94000065
:10054000EFCF0C94000008953FB7F8948091E30436
:100550009091E404A091E504B091E60426B5A89B2F
:1005600005C02F3F19F00196A11DB11D3FBFBA2F45
:10057000A92F982F8827820F911DA11DB11DBC01A5
:10058000CD0142E0660F771F881F991F4A95D1F76A
:10059000089508950E949E180F931F93CF93DF93A1
:1005A000EC0188819981009729F02A813B812617E7
:1005B000370788F48B016F5F7F4F0E94BA1700974F
:1005C00061F0998388831B830A832C813D81232BCF
:1005D00011F4FC01108281E001C080E0DF91CF9135
:1005E0001F910F9108951F93CF93DF9300D01F9217
:1005F000CDB7DEB718E00E942F0D837009F47AC0E2
:100600000E942F0D982F9B7A83FF72C034E085FDE6
:1006100002C020E001C028E0892F881F8827881F9A
:100620008295807F9370932B922B892B80FF09C03A
:1006300023E038E04EEF57E0BE016F5F7F4F80E967
:100640000AC081FF52C023E038E04EEF57E0BE0100
:100650006F5F7F4F84E90E94480D89819A81AB8149
:10066000BC818093FF0790930008A0930108B0938A
:10067000020889819A81AB81BC81FC01F052E8308B
:10068000F105C0F58827EE58FF4F8F4F0C94711677
:10069000ECE5F9E0AEE4B5E022C0ECE5F9E0A6E473
:1006A000B5E01DC0ECE5F9E0AEE3B5E018C0ECE55F
:1006B000F9E0ACE0B2E013C0ECE5F9E0A6E3B5E0A8
:1006C0000EC0ECE5F9E0AEE2B5E009C0ECE5F9E01A
:1006D000A5E2B5E004C0ECE5F9E0ACE1B5E0812FBE
:1006E00001900D928A95E1F786CF10926409C1CFEF
:1006F00030E08DCF0F900F900F900F90DF91CF9142
:100700001F910895EF92FF920F931F93CF93DF9362
:100710006115710511F480E022C0FB0101900020F9
:10072000E9F73197E61BF70BDC0114960D911C914C
:100730001597309799F07B01EC010E0F1F1FB80140
:100740002BDF882341F3288139818C819D81B7017A
:10075000820F931F0E94AB181D830C8381E0DF91F1
:10076000CF911F910F91FF90EF900895EF92FF921C
:100770000F931F93CF93DF93EC01198218821B8292
:100780001A821D821C826115710541F18B01FB01EA
:1007900001900020E9F731977F01E61AF70AB701C7
:1007A000FBDE2881398181110DC02115310519F039
:1007B000C9010E942217198218821D821C821B8285
:1007C0001A820CC0FD82EC82B801C901DF91CF9181
:1007D0001F910F91FF90EF900C94AB18DF91CF9188
:1007E0001F910F91FF90EF9008956115710579F0B9
:1007F000FB0101900020E9F73197AF01461B570B31
:10080000DC01ED91FC910280F381E02D199480E0F0
:1008100090E008951F920F920FB60F9211240BB61D
:100820000F922F933F934F935F936F937F938F9389
:100830009F93AF93BF93EF93FF9389E098E0D3DD4D
:10084000FF91EF91BF91AF919F918F917F916F91A8
:100850005F914F913F912F910F900BBE0F900FBE64
:100860000F901F9018951F920F920FB60F921124A0
:100870000BB60F922F933F934F935F936F937F939A
:100880008F939F93AF93BF93EF93FF9389E098E08B
:100890002CDDFF91EF91BF91AF919F918F917F914F
:1008A0006F915F914F913F912F910F900BBE0F90E1
:1008B0000FBE0F901F9018951F920F920FB60F92B8
:1008C00011240BB60F922F933F934F935F936F9327
:1008D0007F938F939F93AF93BF93EF93FF9386EA9A
:1008E00098E081DDFF91EF91BF91AF919F918F9142
:1008F0007F916F915F914F913F912F910F900BBE20
:100900000F900FBE0F901F9018951F920F920FB669
:100910000F9211240BB60F922F933F934F935F9337
:100920006F937F938F939F93AF93BF93EF93FF93B7
:1009300086EA98E0DADCFF91EF91BF91AF919F9149
:100940008F917F916F915F914F913F912F910F9078
:100950000BBE0F900FBE0F901F9018951F920F9215
:100960000FB60F9211240BB60F922F933F934F9314
:100970005F936F937F938F939F93AF93BF93EF9307
:10098000FF9386E595E02FDDFF91EF91BF91AF9149
:100990009F918F917F916F915F914F913F912F9197
:1009A0000F900BBE0F900FBE0F901F9018951F92C7
:1009B0000F920FB60F9211240BB60F922F933F9305
:1009C0004F935F936F937F938F939F93AF93BF9357
:1009D000EF93FF9386E595E088DCFF91EF91BF915F
:1009E000AF919F918F917F916F915F914F913F91C7
:1009F0002F910F900BBE0F900FBE0F901F90189568
:100A00001F920F920FB60F9211240BB60F922F93D5
:100A10003F934F935F936F937F938F939F93AF9386
:100A2000BF93EF93FF9383EF95E0DDDCFF91EF91B0
:100A3000BF91AF919F918F917F916F915F914F91F6
:100A40003F912F910F900BBE0F900FBE0F901F90F4
:100A500018951F920F920FB60F9211240BB60F929A
:100A60002F933F934F935F936F937F938F939F93B6
:100A7000AF93BF93EF93FF9383EF95E036DCFF9145
:100A8000EF91BF91AF919F918F917F916F915F9106
:100A90004F913F912F910F900BBE0F900FBE0F9073
:100AA0001F901895362F90E0FC01E85DFE4F4491B1
:100AB000FC01E851FE4F2491FC01EE55FE4F94914C
:100AC000992309F46BC0442309F455C050E0FA019E
:100AD0003197E231F10508F04EC08827E658FF4F04
:100AE0008F4F0C947116809180008F7707C0809192
:100AF00080008F7D03C080918000877F809380007D
:100B00003AC084B58F7702C084B58F7D84BD33C071
:100B10008091B0008F7703C08091B0008F7D80936B
:100B2000B00029C0809190008F7707C0809190001D
:100B30008F7D03C080919000877F809390001BC0C1
:100B40008091A0008F7707C08091A0008F7D03C0A7
:100B50008091A000877F8093A0000DC0809120012C
:100B60008F7707C0809120018F7D03C08091200185
:100B7000877F80932001E92FF0E0EE0FFF1FE259FD
:100B8000FE4FA591B4918FB7F894EC91311103C049
:100B900020952E2301C02E2B2C938FBF08958F926A
:100BA0009F92AF92BF92CF92DF92EF92FF926B0132
:100BB0007C01CADC4B015C01C114D104E104F104E5
:100BC000E9F0C2DCDC01CB0188199909AA09BB094B
:100BD000883E9340A105B10578F321E0C21AD108FF
:100BE000E108F10888EE880E83E0981EA11CB11C74
:100BF000C114D104E104F10421F7DECFFF90EF909E
:100C0000DF90CF90BF90AF909F908F9008952FB7B7
:100C1000F8946091DF047091E0048091E104909178
:100C2000E2042FBF08951F920F920FB60F92112466
:100C30002F933F938F939F93AF93BF938091DF0444
:100C40009091E004A091E104B091E2043091DE04BF
:100C500023E0230F2D3720F40196A11DB11D05C0FF
:100C600026E8230F0296A11DB11D2093DE04809378
:100C7000DF049093E004A093E104B093E204809138
:100C8000E3049091E404A091E504B091E604019698
:100C9000A11DB11D8093E3049093E404A093E504A7
:100CA000B093E604BF91AF919F918F913F912F91A7
:100CB0000F900FBE0F901F9018951F920F920FB6B6
:100CC0000F9211240BB60F922F933F934F935F9384
:100CD0006F937F938F939F93AF93BF93EF93FF9304
:100CE000E0912202F09123021995FF91EF91BF91BB
:100CF000AF919F918F917F916F915F914F913F91B4
:100D00002F910F900BBE0F900FBE0F901F90189554
:100D10001F920F920FB60F9211240BB60F922F93C2
:100D20003F934F935F936F937F938F939F93AF9373
:100D3000BF93EF93FF93E0912002F0912102199568
:100D4000FF91EF91BF91AF919F918F917F916F91A3
:100D50005F914F913F912F910F900BBE0F900FBE5F
:100D60000F901F9018951F920F920FB60F9211249B
:100D70000BB60F922F933F934F935F936F937F9395
:100D80008F939F93AF93BF93EF93FF93E0911602DE
:100D9000F09117021995FF91EF91BF91AF919F913B
:100DA0008F917F916F915F914F913F912F910F9014
:100DB0000BBE0F900FBE0F901F9018951F920F92B1
:100DC0000FB60F9211240BB60F922F933F934F93B0
:100DD0005F936F937F938F939F93AF93BF93EF93A3
:100DE000FF93E0911402F09115021995FF91EF9194
:100DF000BF91AF919F918F917F916F915F914F9133
:100E00003F912F910F900BBE0F900FBE0F901F9030
:100E100018951F920F920FB60F9211240BB60F92D6
:100E20002F933F934F935F936F937F938F939F93F2
:100E3000AF93BF93EF93FF93E0911E02F0911F02D7
:100E40001995FF91EF91BF91AF919F918F917F91F4
:100E50006F915F914F913F912F910F900BBE0F902B
:100E60000FBE0F901F9018951F920F920FB60F9202
:100E700011240BB60F922F933F934F935F936F9371
:100E80007F938F939F93AF93BF93EF93FF93E091E3
:100E90001C02F0911D021995FF91EF91BF91AF9146
:100EA0009F918F917F916F915F914F913F912F9182
:100EB0000F900BBE0F900FBE0F901F9018951F92B2
:100EC0000F920FB60F9211240BB60F922F933F93F0
:100ED0004F935F936F937F938F939F93AF93BF9342
:100EE000EF93FF93E0911A02F0911B021995FF9185
:100EF000EF91BF91AF919F918F917F916F915F9192
:100F00004F913F912F910F900BBE0F900FBE0F90FE
:100F10001F9018951F920F920FB60F9211240BB6C7
:100F20000F922F933F934F935F936F937F938F9382
:100F30009F93AF93BF93EF93FF93E0911802F091CB
:100F400019021995FF91EF91BF91AF919F918F91E8
:100F50007F916F915F914F913F912F910F900BBEB9
:100F60000F900FBE0F901F901895DC01ED91FC9132
:100F70000190F081E02D1994CF93DF93EC0186E589
:100F800095E001DA892B21F086E595E0DAD9F7CFF3
:100F9000BE0186E595E029DC6FEF70E086E595E01F
:100FA000E4DF6FEF70E086E595E0DFDF6FEF70E084
:100FB00086E595E0DF91CF91D8CFEF92FF920F9326
:100FC0001F93CF93DF9300D000D0CDB7DEB77C0165
:100FD0008B016EEC74E0CE010196C8DBF7016281F3
:100FE0007381CE0101968EDB6CE372E0CE01019637
:100FF00089DBB801CE01019685DB61E472E0CE01A8
:10100000019680DB89819A81B7DF1DD3182F8981F2
:101010009A810E942217812F26960FB6F894DEBF80
:101020000FBECDBFDF91CF911F910F91FF90EF9039
:10103000089563E472E084EA97E0BFCF0F931F93B3
:10104000CF93DF9300D000D0CDB7DEB7FC01028193
:1010500013810115110599F061E672E0CE01019648
:1010600085DBB801CE0101964DDB89819A8184DF51
:10107000EAD2182F89819A810E94221701C010E0BC
:10108000812F26960FB6F894DEBF0FBECDBFDF913D
:10109000CF911F910F9108958091E70481110FC0A6
:1010A0008091DD0481110BC067E672E084EA97E06D
:1010B00084DF8091DD048F5F8093DD04089581E0FB
:1010C0008093E80488ED97E0B9CF81E08093E8044D
:1010D00088ED97E0B3CF82E08093E8048CEC97E052
:1010E000ADCF8F929F92AF92BF92EF92FF920F93EC
:1010F0001F93CF93DF93CDB7DEB760970FB6F89409
:10110000DEBF0FBECDBF7C014A015B018E010F5FC8
:101110001F4F8AE0F80111928A95E9F76EEC74E0AE
:10112000CE010B9623DB4AE0B801C4010E941316DE
:10113000F70162817381CE010B96E4DA66E872E012
:10114000CE010B96DFDAB801CE010B96DBDA8B8588
:101150009C8512DF78D2182F8B859C850E942217E0
:10116000812F60960FB6F894DEBF0FBECDBFDF9122
:10117000CF911F910F91FF90EF90BF90AF909F90F4
:101180008F900895CF92DF92EF92FF920F931F936B
:10119000CF93DF93CDB7DEB760970FB6F894DEBF7D
:1011A0000FBECDBF7C016B018E010F5F1F4F8AE028
:1011B000F80111928A95E9F76EEC74E0CE010B9676
:1011C000D5DA4AE0B801C6010E941316F701628120
:1011D0007381CE010B9696DA6CE872E0CE010B9625
:1011E00091DAB801CE010B968DDA8B859C85C4DE31
:1011F0002AD2182F8B859C850E942217812F6096FA
:101200000FB6F894DEBF0FBECDBFDF91CF911F9117
:101210000F91FF90EF90DF90CF90089508958EBDCD
:1012200000000DB407FEFDCF8EB508958CBD9DBDA9
:101230000895ECE0F2E08081218190E0922B089506
:10124000CF92DF92EF92FF920F931F93CF934AE0DA
:10125000E42E57EDC52E51E0D52E0DE112E0FFB67C
:10126000F8948091DC0481111EC0F6018491F8018C
:10127000249190E0880F991F88579E4FFC01A591FB
:10128000B4918C91282319F461E085E30BDC85E3AC
:10129000EAD08CB580618CBD8CB580648CBD84E354
:1012A000E2D083E3E0D08091DC048F5F8093DC04A4
:1012B000FFBE80E591E0BADF60E080910408F2DBD8
:1012C00080ECADDF61E080910408ECDB6AE070E067
:1012D00080E090E064DC80E878D1882379F06AE0EF
:1012E00070E080E090E05BDCEA94EE2009F444C01A
:1012F00064E670E080E090E052DCB1CF6AE070E03C
:1013000080E090E04CDC60EC8AE281D160E889E228
:101310007ED161E088E27BD16AE070E080E090E01D
:101320003EDCC0E360E08C2F72D160E080E18C0F86
:101330006ED160E080E28C0F6AD1CF5FCE3391F73F
:1013400060E080E664D160E080E761D163E08BE239
:101350005ED144E064E680E60CD140E060E680E7E0
:1013600008D180E032D18111BACF6AE070E080E02C
:1013700090E015DC80E001C081E0CF911F910F91DA
:10138000FF90EF90DF90CF9008958091F0079091BB
:10139000F10756DF80E097C0CF92DF92EF92FF9285
:1013A0000F931F93CF93DF93EC016A017B01E889D0
:1013B000F98982E080834115514E61057105B1F0D4
:1013C00060E079E08DE390E0A70196010E944F165E
:1013D00089019A0101501109210931093695279592
:1013E00017950795980101151041A8F0E889F9892A
:1013F000108260E874E88EE190E0A70196010E94F7
:101400004F16DA01C9010197A109B109B695A7954F
:10141000979587959C01EC85FD853083EE85FF854A
:101420002083188EEC89FD8986E08083EA89FB8918
:10143000808180618083EA89FB89808188608083E4
:10144000EA89FB89808180688083EA89FB898081C1
:101450008F7D8083DF91CF911F910F91FF90EF904F
:10146000DF90CF90089590E0FC01E851FE4F249169
:10147000FC01EE55FE4F8491882399F090E0880F8F
:10148000991FFC01E857FE4FA591B491FC01E25968
:10149000FE4F859194918FB7F894EC91E22BEC93E9
:1014A0008FBF0895CF93DF93BC0183EF95E09DD963
:1014B000EC016CEC74E083EF95E097D98C0F9D1FE5
:1014C000DF91CF910895E82FF0E0EE0FFF1FEC5E63
:1014D000FD4F23EF32E03183208390E08830910587
:1014E00008F046C0FC018827E457FF4F8F4F0C944B
:1014F0007116809169008C7F826080936900E89A00
:10150000089580916900837F886080936900E99ADB
:101510000895809169008F7C806280936900EA9AC7
:101520000895809169008F73806880936900EB9AB9
:10153000089580916A008C7F826080936A00EC9AA3
:10154000089580916A00837F886080936A00ED9A95
:10155000089580916A008F7C806280936A00EE9A81
:10156000089580916A008F73806880936A00EF9A73
:101570000895EF92FF920F931F93CF93DF931F92E3
:10158000CDB7DEB7082F162F80E591E049834EDEF8
:101590008EEFE82E87E0F82E60E0F701868182DA90
:1015A00085E03DDE802F3BDE812F39DE4981842FAF
:1015B00036DE61E0F701868175DA0F90DF91CF9119
:1015C0001F910F91FF90EF9029CECF93DF93D82FEB
:1015D000482F60EE8FE0CDDF80E591E027DE60E010
:1015E000809104085FDA83E01ADE8FE018DE80E085
:1015F00016DEC82F61E08091040854DA0FDEC07E49
:1016000081E0CD1301C080E0DF91CF9108950F9369
:101610001F93CF93DF93082F162F80E591E006DE0E
:10162000CEEFD7E060E08E813DDA82E0F8DD802FFA
:10163000F6DD812FF4DD61E08E8134DADF91CF9128
:101640001F910F91EBCD8F929F92AF92BF92EF922D
:10165000FF920F931F93CF93DF9300D01F92CDB7CC
:10166000DEB719821A821B821C8284E690E0A0E019
:10167000B0E080935A0590935B05A0935C05B0930E
:101680005D058E010F5F1F4F7E0185E0E80EF11CA6
:10169000BEDA60935E0570935F058093600590935A
:1016A0006105E0915605F09157050284F385E02D20
:1016B00086E595E0199597FD0AC0F80181938F01A1
:1016C000EE15FF0529F78981813041F51DC09FDAAC
:1016D00080905E0590905F05A0906005B0906105D8
:1016E000DC01CB0188199909AA09BB0980905A0528
:1016F00090905B05A0905C05B0905D0588159905FC
:10170000AA05BB0570F2DFCF8A818F3F39F48B8148
:101710008F3F21F481E09C819F3F09F080E00F9092
:101720000F900F900F90DF91CF911F910F91FF902D
:10173000EF90BF90AF909F908F900895EF92FF929F
:101740000F931F93CF93DF93CDB7DEB760970FB69C
:10175000F894DEBF0FBECDBF7C018E010F5F1F4F1F
:101760008AE0F80111928A95E9F76EEC74E0CE01F7
:101770000B960E94B6034AE0B801C7010E941316F7
:101780006091B2077091B307CE010B960E9482035D
:101790006FEC74E0CE010B960E948203B801CE017B
:1017A0000B960E9482038B859C85E6DB4CDF182F0D
:1017B0008B859C850E942217812F60960FB6F89426
:1017C000DEBF0FBECDBFDF91CF911F910F91FF9074
:1017D000EF900895CF92DF92EF92FF920F931F93B5
:1017E000CF93DF93CDB7DEB760970FB6F894DEBF27
:1017F0000FBECDBF6B017C018E010F5F1F4F8AE0D2
:10180000F80111928A95E9F76EEC74E0CE010B961F
:101810000E94B6034AE0B801C6010E941316609107
:10182000B2077091B307CE010B960E94820366E85F
:1018300072E0CE010B960E948203B801CE010B9696
:101840000E9482038B859C8597DBFDDE182F8B859C
:101850009C850E942217812F60960FB6F894DEBFF8
:101860000FBECDBFDF91CF911F910F91FF90EF90F1
:10187000DF90CF9008958F929F92AF92BF92CF92B8
:10188000DF92EF92FF920F931F93CF93DF93CDB729
:10189000DEB7A1970FB6F894DEBF0FBECDBF6C01C7
:1018A000990FEE08FF08F7FE33C0E091F305F091C1
:1018B000F4050190F081E02D6DE283EF95E019953C
:1018C0008C0122273327A9012C193D094E095F09F4
:1018D00019A2CE0181967C019AE0892E912CA12C2F
:1018E000B12CCA01B901A50194010E944F16605D97
:1018F000F70162937F01211531054105510589F7F3
:10190000BF0183EF95E00E94F503080F191F20C067
:10191000A701960119A28E010F5D1F4F8AE0C82E04
:10192000D12CE12CF12CCA01B901A70196010E942A
:101930004F16605DF80162938F0121153105410555
:10194000510589F7BF0183EF95E00E94F5038C01F3
:101950006CEC74E083EF95E00E94F503800F911F1B
:10196000A1960FB6F894DEBF0FBECDBFDF91CF9129
:101970001F910F91FF90EF90DF90CF90BF90AF90AD
:101980009F908F900895DC01ED91FC910280F3818E
:10199000E02D48E050E019944AE065E679E00E94C5
:1019A000091665ED74E083EF95E00E94F5038091E0
:1019B0006509803319F48EE48093650985E699E022
:1019C00071DD85E699E00895DF92EF92FF920F9323
:1019D0001F93CF93DF938B0168EE73E00E943C1658
:1019E000262F64E670E00E943C16D62E6AE070E076
:1019F0000E943C16E62EF82E4AE0B801822F90E0B5
:101A00000E940916F8018081E801803309F02196CF
:101A10004AE0BE018D2D90E00E9409168881803336
:101A200029F0F8018081803309F021964AE0BE0157
:101A30008E2D90E00E9409168EE28983BE016E5FB2
:101A40007F4F4AE08F2D90E00E940916C801DF9178
:101A5000CF911F910F91FF90EF90DF9008951F930A
:101A6000CF93DF9380E591E0E1DBCEEFD7E060E05C
:101A70008E8118D880EAD3DB80E0D1DB182F61E0BB
:101A80008E8110D8CBDB812FDF91CF911F910895EC
:101A90009F92AF92BF92CF92DF92EF92FF920F93FD
:101AA0001F93CF93DF9300D01F92CDB7DEB7D82E10
:101AB0008B017A01590160E0809104080E9452056F
:101AC0008D2DADDBCE0101966C01E4E09E2E980ECB
:101AD00080E0A5DBF60181936F019E12F9CF3C8176
:101AE00033FB882780F9F50180832A814981822F81
:101AF00090E075E0959587957A95E1F7F8E04F9F2E
:101B0000800D911D1124092E000CAA0BBB0BF801AE
:101B100080839183A283B38323FF38C08081918126
:101B2000A281B38142E0880F991FAA1FBB1F4A956B
:101B3000D1F72370820F911DA11DB11D8083918368
:101B4000A283B38380819181A281B381BA2FA92F0F
:101B5000982F88272B81820F911DA11DB11D808395
:101B60009183A283B38380819181A281B381BA2FB3
:101B7000A92F982F8827830F911DA11DB11D808348
:101B80009183A283B38381E0F701808380E047DB08
:101B90008F70809364098CE5E82E89E0F82E10E0C0
:101BA00080916409181748F4183039F080E037DB69
:101BB000F70181937F011F5FF3CF61E080910408FB
:101BC0000F900F900F900F90DF91CF911F910F9179
:101BD000FF90EF90DF90CF90BF90AF909F900C94CC
:101BE0005205789484B5826084BD84B5816084BDDB
:101BF00085B5826085BD85B5816085BD80916E00AB
:101C0000816080936E0010928100809181008260DB
:101C10008093810080918100816080938100809118
:101C200080008160809380008091B1008460809307
:101C3000B1008091B00081608093B00080919100EC
:101C400082608093910080919100816080939100E7
:101C5000809190008160809390008091A1008260CB
:101C60008093A1008091A10081608093A100809168
:101C7000A00081608093A000809121018260809308
:101C800021018091210181608093210180912001B7
:101C900081608093200180917A00846080937A0033
:101CA00080917A00826080937A0080917A008160CE
:101CB00080937A0080917A00806880937A001092F5
:101CC000C10040E052EC61E070E083EF95E064DB3E
:101CD00082E992E0E7DB40E052EC61E070E086E50B
:101CE00095E05ADB8EEC94E047D98AEB92E044D938
:101CF000AADC82EC92E040D9A6DC1092E80484EEE3
:101D000097E09CD989E198E09093C9078093C80730
:101D100080EC97E09093CB078093CA078CE498E01F
:101D20009093BD078093BC0784EB97E09093BF0727
:101D30008093BE078BE698E09093A1078093A0075D
:101D400088E997E09093A3078093A20785E698E03F
:101D500090934D0780934C0784E497E090934F074E
:101D600080934E0785EC99E090934107809340075C
:101D700088E397E0909343078093420762E370E023
:101D800080E090E027DD88EE97E0D8DC69EC72E037
:101D900084EA97E012D984E499E052DA882331F09A
:101DA0008BED92E07FDB1092E7041AC088EE92E0A0
:101DB00079DB81E08093E70480E085DB0E94070601
:101DC0006B017C0123EFC20E21E0D21EE11CF11C4D
:101DD000C616D706E806F9061CF00E940706F8CFDB
:101DE00064EF72E083EF95E00E94F5038091F007C5
:101DF0009091F1071EDA3FDDC091E704C13009F090
:101E0000B3C38091F0079091F10713DA8F3F9105EA
:101E100009F4DCC361E773E084EA97E0CED864E6B6
:101E200070E080E090E0D6DC88EE97E087DC64EF3D
:101E300071E080E090E00E94CF05C093E80488ED57
:101E400097E0FCD8CAE0D0E008EE13E044E6E42EC8
:101E5000F12C5EE2D52E0E94070660931805709360
:101E6000190580931A0590931B0586E595E00E945D
:101E7000C301181619060CF04DC06AE070E080E04E
:101E800090E00E94CF0586E595E00E94A101B82E62
:101E900085E6B812EACF86E595E00E94C301069771
:101EA00024F3B092E9043AEEA32E34E0B32E86E593
:101EB00095E00E94A101F50181935F01F0EFAF165B
:101EC000F4E0BF06A1F71092F0048091ED048F3F7B
:101ED00061F68091EE048F3F41F68091EF048F3FD1
:101EE00021F64091EC0450E060E070E08091EB045A
:101EF0009091EA04E0E0F2E0A191B191109709F429
:101F0000B4CF2C912913F8CF11962C911197281347
:101F1000F3CF39C38091180590911905A0911A0546
:101F2000B0911B054091140550911505609116055F
:101F300070911705841B950BA60BB70BC397A105D2
:101F4000B10508F493C162E073E083EF95E00E946D
:101F5000F5038EEC94E0A6DA6FE173E083EF95E091
:101F60000E94F50384E499E064D985DC8091E8045B
:101F7000813021F0823009F45CC05EC18091F007AD
:101F80009091F10756D908DDBC0184E797E015D898
:101F900040914E0580914F0550E0582B052E000CC6
:101FA000660B770B88E697E09CD840914A058091B4
:101FB0004B0550E0582B24E0559547952A95E1F7BD
:101FC000052E000C660B770B8CE597E08AD8809184
:101FD00042052091430590E0922BBE014DD6AB0106
:101FE000770F660B770B80E597E07BD880915205E1
:101FF00020915305A0903E0590913F05B12CB92A40
:1020000090E0922BC2971CF060E078EE02C068EE80
:1020100077E08CE897E0B6D828ECA216B1041CF063
:1020200060E078EE02C068EE77E080E897E0AAD83A
:1020300003C1809148052091490590E0922BB80199
:102040001BD6262FB70118D6662EBE0115D6762EC2
:10205000C82E4AE068E075E0822F90E0DAD58091E2
:102060000805803329F099E0892E95E0992E04C067
:1020700088E0882E85E0982E54018FEFA81AB80AC0
:10208000F401D1824AE0B501862D90E0C2D5F40179
:102090008181803341F080910805803321F0540123
:1020A000F2E0AF0EB11C4AE0B501872D90E0B1D54A
:1020B000B5016F5F7F4F4AE08C2D90E0AAD58091EB
:1020C0004A0520914B0590E062E075E0922B7CDCA4
:1020D000809142052091430590E06DEF74E0922BD2
:1020E00073DC809144052091450590E068EF74E031
:1020F000922B6ADC809110022091110290E04AE05C
:1021000063EF74E0922B85D58091E704882319F062
:1021100068E273E002C060E373E08CE297E00E9443
:10212000DD078091F0079091F10783D835DCBC0181
:1021300080E297E00E94DD0740914E0580914F05B7
:1021400050E0582B052E000C660B770B84E197E0CE
:102150000E947108409150058091510550E0582B24
:10216000052E000C660B770B88E097E00E94710843
:10217000409152058091530550E0582B052E000CDC
:10218000660B770B8CEF96E00E9471084091540526
:102190008091550550E0582B052E000C660B770BEF
:1021A00080EF96E00E9471084091460580914705B6
:1021B00050E0582B052E000C660B770B84EE96E052
:1021C0000E94710868E075E088ED96E00E94DD07E6
:1021D00062E075E08CEC96E00E94DD076DEF74E044
:1021E00080EC96E00E94DD0768EF74E084EB96E0F7
:1021F0000E94DD0763EF74E088EA96E00E94DD0745
:1022000040913E0580913F0550E0582B052E000C73
:10221000660B770B8CE996E00E94710840914C05A3
:1022200080914D0550E0582B052E000C660B770B66
:1022300080E996E00E947108809118059091190537
:10224000A0911A05B0911B05809314059093150574
:10225000A0931605B09317050E9407066093180512
:102260007093190580931A0590931B0580911805AA
:1022700090911905A0911A05B0911B054091100588
:10228000509111056091120570911305841B950BF7
:10229000A60BB70BC397A105B10508F4A4C069E369
:1022A00073E083EF95E00E94F5036AE070E08091AF
:1022B000FC079091FD070E94B5076FEF70E08091D9
:1022C000FC079091FD070E94B50760E270E08091E5
:1022D000FC079091FD070E94B5076091F807709187
:1022E000F9078091FC079091FD074DDB6AE070E0F3
:1022F0008091FC079091FD070E94B5076FEF70E099
:102300008091FC079091FD070E94B50761E270E0A3
:102310008091FC079091FD070E94B5076091F60738
:102320007091F7078091FC079091FD072CDB6AE024
:1023300070E08091FC079091FD070E94B5076FEF58
:1023400070E08091FC079091FD070E94B50762E262
:1023500070E08091FC079091FD070E94B5076091A5
:10236000F4077091F5078091FC079091FD070BDB56
:102370006AE070E08091FC079091FD070E94B5072C
:102380006FEF70E08091FC079091FD070E94B50708
:1023900063E270E08091FC079091FD070E94B50711
:1023A0006091F2077091F3078091FC079091FD070F
:1023B000EADA8091180590911905A0911A05B0915B
:1023C0001B058093100590931105A0931205B093FF
:1023D00013050E94070660931805709319058093F2
:1023E0001A0590931B058091180590911905A091ED
:1023F0001A05B0911B0540910C0550910D05609197
:102400000E0570910F05841B950BA60BB70B853637
:102410009105A105B10508F4A4C067E573E083EF59
:1024200095E00E94F5036AE070E08091FA079091D0
:10243000FB070E94B5076FEF70E08091FA0790915B
:10244000FB070E94B50760E270E08091FA07909167
:10245000FB070E94B5076091F8077091F90780911A
:10246000FA079091FB078FDA6AE070E08091FA0733
:102470009091FB070E94B5076FEF70E08091FA071B
:102480009091FB070E94B50761E270E08091FA0726
:102490009091FB070E94B5076091F6077091F707CE
:1024A0008091FA079091FB076EDA6AE070E0809104
:1024B000FA079091FB070E94B5076FEF70E08091DB
:1024C000FA079091FB070E94B50762E270E08091E5
:1024D000FA079091FB070E94B5076091F40770918D
:1024E000F5078091FA079091FB074DDA6AE070E0FA
:1024F0008091FA079091FB070E94B5076FEF70E09B
:102500008091FA079091FB070E94B50763E270E0A3
:102510008091FA079091FB070E94B5076091F2073E
:102520007091F3078091FA079091FB072CDA809164
:10253000180590911905A0911A05B0911B0580937B
:102540000C0590930D05A0930E05B0930F050E9406
:102550000706609318057093190580931A059093E8
:102560001B050E947B0277CC6FE973E084EA97E059
:102570000E94DD0764E670E080E090E02BD980E007
:1025800098EEDCD85FCC413051056105710561F4EE
:102590001496ED91FC911597309709F466CC169638
:1025A0008D919C91179710C0452B462B472B09F016
:1025B0005CCC1896ED91FC911997309709F455CCA5
:1025C0001A968D919C911B9719954FCC8091F0078D
:1025D0009091F1070E9419098F3F910529F660E853
:1025E00073E0C4CFCF92DF92EF92FF920F931F93CD
:1025F000CF93DF93C9E0D8E01B821A8248EE53E004
:1026000060E070E04C835D836E837F838EE292E0B6
:102610009983888325E331E03D872C8724E331E0EB
:102620003F872E8720E331E0398B288B21E331E08F
:102630003B8B2A8B22E331E03D8B2C8B26E331E070
:102640003F8B2E8B198E1A8E1B8E1C8E06EA18E07D
:10265000F8011382128244835583668377839183C2
:10266000808325ED30E03587248724ED30E03787FF
:10267000268720ED30E0318B208B21ED30E0338B4D
:10268000228B22ED30E0358B248B26ED30E0378B2A
:10269000268B118E128E138E148EE6E5F5E01382D2
:1026A00012824483558366837783918380832DECE4
:1026B00030E0358724872CEC30E03787268728ECFC
:1026C00030E0318B208B29EC30E0338B228B2AECED
:1026D00030E0358B248B2EEC30E0378B268B118E3F
:1026E000128E138E148EE3EFF5E013821282448370
:1026F0005583668377839183808385EC90E095870B
:10270000848784EC90E09787868780EC90E0918BBB
:10271000808B81EC90E0938B828B82EC90E0958BA8
:10272000848B86EC90E0978B868B118E128E138EA5
:10273000148EE4EEF7E01082118280EC93E0938334
:102740008283158214821186108613861286178260
:102750001682E8EDF7E091E09083118228EC33E0F7
:102760003383228315821482118610861386128683
:1027700017821682ECECF7E082E0808311822DEC68
:1027800033E03383228315821482118610861386E8
:10279000128617821682E0ECF7E0108225E0218392
:1027A00022ED33E033832283158214821186108652
:1027B0001386128617821682E4EBF7E0108223E07C
:1027C00021832AED33E0338322831582148211861C
:1027D00010861386128617821682E0EBF7E01082CD
:1027E00024E0218342EE53E053834283E4EAF7E09E
:1027F0008083818341EF53E05383428315821482A7
:10280000118610861386128617821682E8E9F7E091
:10281000908381834DEF53E053834283158214826A
:10282000118610861386128617821682ECE8F7E06E
:10283000908338E0318345E054E05383428315822E
:102840001482118610861386128617821682E0E89B
:10285000F7E0908339E031834EE054E053834283C4
:1028600015821482118610861386128617821682AC
:10287000E4E7F7E09083218343E253E0538342830C
:10288000158214821186108613861286178216828C
:10289000E8E6F7E090834BE041834FE454E0538354
:1028A000428315821482118610861386128617823F
:1028B0001682ECE5F7E090834CE041834AE854E06F
:1028C00053834283158214821186108613861286E2
:1028D00017821682E0E5F7E090839DE0918345E959
:1028E00054E0538342831582148211861086138626
:1028F000128617821682E4E4F7E08083318346E192
:1029000054E0538342831582148211861086138605
:10291000128617821682E8E3F7E0808392E19183C2
:102920004EE154E05383428315821482118610864F
:102930001386128617821682E5E4F9E0808381838C
:102940004BE254E053834283158214821186108631
:102950001386128617821682ECE2F7E080832183C9
:1029600027E334E033832283158214821186108694
:102970001386128617821682E0E2F7E0808398E1E0
:10298000918320E434E033832283158214821186FC
:1029900010861386128617821682E4E1F7E08083A0
:1029A00099E191832AE434E03383228315821482EF
:1029B000118610861386128617821682E8E0F7E0E9
:1029C00080839AE1918323E534E033832283158267
:1029D0001482118610861386128617821682ECEFF7
:1029E000F6E080839BE191832CE534E033832283FE
:1029F000158214821186108613861286178216821B
:102A0000E0EFF6E080839CE1918327E634E03383B6
:102A100022831582148211861086138612861782ED
:102A20001682E4EEF6E080839DE1918320E734E0B6
:102A300033832283158214821186108613861286B0
:102A400017821682E8EDF6E080839EE1918329E704
:102A500034E0338322831582148211861086138614
:102A6000128617821682ECECF6E0808393E1918364
:102A700025E834E033832283158214821186108680
:102A80001386128617821682E0ECF6E0808394E1CA
:102A9000918320E934E033832283158214821186E6
:102AA00010861386128617821682E4EBF6E0808386
:102AB00096E1918329E934E03383228315821482DD
:102AC000118610861386128617821682E8EAF6E0CF
:102AD000808395E1918323EA34E033832283158256
:102AE0001482118610861386128617821682ECE9EC
:102AF000F6E080839FE191832FEA34E033832283E1
:102B00001582148211861086138612861782168209
:102B1000E0E9F6E0808380E281838EEB94E09383AA
:102B2000828315821482118610861386128617827C
:102B300016828EEFE82E87E0F82EF70111869BE5CE
:102B4000C92E99E0D92ED086C78285E30E94330A28
:102B500061E085E30E94520585E3F70186831186D3
:102B6000D086C78224E4E22E29E0F22EF0925A09A0
:102B7000E09259091093FD070093FC0780E092EC66
:102B8000A1E0B0E08093550990935609A0935709AE
:102B9000B0935809D093FB07C093FA07809351096B
:102BA00090935209A0935309B093540940E052EC1A
:102BB00061E070E0C8010E94CC0940E052EC61E0A5
:102BC00070E0CE010E94CC098EE495E09093F90765
:102BD0008093F80786E495E09093F7078093F607D3
:102BE0008EE395E09093F5078093F4078CE092E0F4
:102BF0009093F3078093F207F092F107E092F007C9
:102C0000DF91CF911F910F91FF90EF90DF90CF90C8
:102C10000895BB274A3031F4992322F4BDE2909500
:102C200081959F4F01C0BB27FB015527AA27880F1D
:102C3000991FAA1FA41710F0A41B83955051B9F730
:102C4000A05DAA3308F0A95DA193009779F7B111AF
:102C5000B1931192CB0100C0DC01FC01672F71918F
:102C60007723E1F7329704C07C916D937083629172
:102C7000AE17BF07C8F3089597FB072E16F400940C
:102C800006D077FD08D035D007FC05D03EF49095EE
:102C900081959F4F0895709561957F4F0895A1E2AA
:102CA0001A2EAA1BBB1BFD010DC0AA1FBB1FEE1FC6
:102CB000FF1FA217B307E407F50720F0A21BB30B11
:102CC000E40BF50B661F771F881F991F1A9469F78D
:102CD00060957095809590959B01AC01BD01CF01E9
:102CE0000895EE0FFF1F881F8BBF0790F691E02D10
:102CF0001994AA1BBB1B51E107C0AA1FBB1FA61733
:102D0000B70710F0A61BB70B881F991F5A95A9F794
:102D100080959095BC01CD010895CF93DF938230CB
:102D2000910510F482E090E0E0916909F0916A0960
:102D300020E030E0C0E0D0E0309711F140815181D7
:102D400048175907C0F04817590761F482819381E9
:102D5000209719F09B838A832BC090936A098093F4
:102D6000690926C02115310519F04217530718F4D7
:102D70009A01BE01DF01EF010280F381E02DDCCF7B
:102D80002115310509F1281B390B2430310590F448
:102D900012968D919C9113976115710521F0FB019D
:102DA0009383828304C090936A0980936909FD012B
:102DB000329644C0FD01E20FF31F8193919322509C
:102DC00031092D933C933AC02091670930916809ED
:102DD000232B41F420912602309127023093680979
:102DE0002093670920912402309125022115310595
:102DF00041F42DB73EB74091280250912902241B7F
:102E0000350BE0916709F0916809E217F307A0F428
:102E10002E1B3F0B2817390778F0AC014E5F5F4F30
:102E20002417350748F04E0F5F1F509368094093F1
:102E300067098193919302C0E0E0F0E0CF01DF9158
:102E4000CF9108950F931F93CF93DF93009709F4C9
:102E50008CC0FC0132971382128200916909109193
:102E60006A090115110581F420813181820F931FB8
:102E700020916709309168092817390779F5F0938F
:102E80006809E093670971C0D80140E050E0AE17CF
:102E9000BF0750F412962D913C911397AD01211567
:102EA000310509F1D901F3CF9D01DA013383228382
:102EB00060817181860F971F8217930769F4EC0177
:102EC00028813981260F371F2E5F3F4F31832083A2
:102ED0008A819B8193838283452B29F4F0936A092D
:102EE000E093690942C01396FC93EE931297ED01AB
:102EF000499159919E01240F351FE217F30771F490
:102F000080819181840F951F029611969C938E93D8
:102F10008281938113969C938E931297E0E0F0E068
:102F2000D80112968D919C911397009719F0F80192
:102F30008C01F6CF8D919C9198012E5F3F4F820FAF
:102F4000931F20916709309168092817390769F4A0
:102F5000309729F410926A091092690902C013820D
:102F600012821093680900936709DF91CF911F9136
:102F70000F9108956F927F928F929F92AF92BF921E
:102F8000CF92DF92EF92FF920F931F93CF93DF9335
:102F9000EC01009781F4CB01DF91CF911F910F914C
:102FA000FF90EF90DF90CF90BF90AF909F908F9069
:102FB0007F906F90B2CEFC01E60FF71F9C0122506C
:102FC0003109E217F30708F4A8C0D9010D911C914B
:102FD000119706171707A8F00530110508F49BC0D4
:102FE000C80104978617970708F495C00250110985
:102FF000061B170B019311936D937C93CF0122DF76
:103000008AC05B01A01AB10A4C01800E911EA091EA
:103010006909B0916A0940E050E0E12CF12C109769
:1030200009F44AC0A815B905D1F56D907C901197A7
:10303000630182E0C80ED11CCA14DB0480F1A30135
:103040004A195B096A0182E0C80ED11C1296BC9035
:1030500012971396AC91B5E0CB16D10440F0B28232
:10306000A38351834083D9016D937C930AC00E5F83
:103070001F4FC301800F911FF90191838083EB2DB6
:10308000FA2FE114F10431F0D7011396FC93EE937B
:10309000129741C0F0936A09E09369093CC08D9191
:1030A0009C9111974817590708F4AC017D011296BD
:1030B0000D90BC91A02DB3CF8091670990916809C4
:1030C00088159905E1F446175707C8F48091240242
:1030D00090912502009741F48DB79EB74091280248
:1030E00050912902841B950BE817F907B0F4F0936F
:1030F0006809E0936709F901718360830CC0CB0113
:103100000CDE7C01009749F0A801BE011BD0CE0166
:1031100099DEC70104C0CE0102C080E090E0DF91DB
:10312000CF911F910F91FF90EF90DF90CF90BF90C4
:10313000AF909F908F907F906F90089581E090E086
:10314000F89410C0FB01DC0102C001900D924150C7
:103150005040D8F70895FB01DC0101900D9200204A
:08316000E1F70895F894FFCF98
:10316800C007B407980744073807000000FF0000AD
:1031780000000000C902C902C902C902C902C90285
:10318800C902C90200006B09800000000000140297
:103198004A0192015A02C301A101B5012E74787443
:1031A8003D220054686973206665617475726520F4
:1031B8006973206E6F74206176616C6961626C65F9
:1031C80000706167652000454355206E6F74204389
:1031D8006F6E6E65637465642E20506C65617365EF
:1031E8002057616974002E76616C3D002E62636F12
:1031F8003D0053657269616C204465627567676953
:103208006E6720456E61626C65642061742031319F
:1032180035323030204261756400626B636D643D05
:10322800310070616765203000436F6E6E656374AE
:10323800696E6720746F204543550043414E204412
:10324800495341424C45440043414E20454E41427A
:103258004C45440043757272656E7420476561720F
:10326800200055706461746520446973706C6179DD
:10327800205472696767657265642061743A004317
:10328800414E204745415200456E61626C656400BD
:1032980044697361626C656400576972656C657333
:1032A800732053657269616C20547269676765722F
:1032B80065642061743A00446174612053657269E1
:1032C800616C205472696767657265642061743A3D
:1032D80000536574757020436F6D706C657465007C
:1032E80043414E20496E69742E204E6F7420436FFF
:1032F8006E6E656374656420746F204543550043A2
:10330800414E204661696C65642E204E6F742043DF
:103318006F6E6E656374656420746F204543550055
:103328004C4F4144494E47004441534800444941A9
:1033380047006275744165726F00627574436F6E01
:103348007400444941475F4C4F41445F534C4944E2
:1033580000444941475F53544154555300627574C2
:1033680044696167006275745761746572006275BB
:10337800744655454C006275744461736800627503
:103388007443414E456E61626C650062757457699D
:1033980072656C65737300444941475F43414E0051
:1033A800444941475F4745415200444941475F52BC
:1033B800504D00444941475F5450530044494147E8
:1033C8005F574154455200444941475F41495200C3
:1033D800444941475F4D415000444941475F4C4192
:1033E8004D42444100444941475F535045454400DC
:1033F800444941475F42415400444941475F46556B
:10340800454C00444941475F494E4A4543540044AE
:103418004941475F4655454C5F5052455300444922
:1034280041475F4F494C5F50524553000D0A002EEB
:0C34380070636F3D00476561723A000050
:00000001FF
